{"abi":[{"type":"constructor","inputs":[{"name":"_eth","type":"address","internalType":"address"},{"name":"_flux","type":"address","internalType":"address"}],"stateMutability":"nonpayable"},{"type":"function","name":"ETH","inputs":[],"outputs":[{"name":"","type":"address","internalType":"address"}],"stateMutability":"view"},{"type":"function","name":"FACTORY","inputs":[],"outputs":[{"name":"","type":"address","internalType":"address"}],"stateMutability":"view"},{"type":"function","name":"FLUX","inputs":[],"outputs":[{"name":"","type":"address","internalType":"address"}],"stateMutability":"view"},{"type":"function","name":"balanceOf","inputs":[{"name":"","type":"address","internalType":"address"}],"outputs":[{"name":"","type":"uint256","internalType":"uint256"}],"stateMutability":"view"},{"type":"function","name":"ethReserve","inputs":[],"outputs":[{"name":"","type":"uint256","internalType":"uint256"}],"stateMutability":"view"},{"type":"function","name":"fluxReserve","inputs":[],"outputs":[{"name":"","type":"uint256","internalType":"uint256"}],"stateMutability":"view"},{"type":"function","name":"getReserves","inputs":[],"outputs":[{"name":"","type":"uint256","internalType":"uint256"},{"name":"","type":"uint256","internalType":"uint256"},{"name":"","type":"uint256","internalType":"uint256"}],"stateMutability":"view"},{"type":"function","name":"mint","inputs":[{"name":"to","type":"address","internalType":"address"}],"outputs":[{"name":"liquidity","type":"uint256","internalType":"uint256"}],"stateMutability":"nonpayable"},{"type":"function","name":"swap","inputs":[{"name":"ethAmountOut","type":"uint256","internalType":"uint256"},{"name":"fluxAmountOut","type":"uint256","internalType":"uint256"},{"name":"to","type":"address","internalType":"address"},{"name":"","type":"bytes","internalType":"bytes"}],"outputs":[],"stateMutability":"nonpayable"},{"type":"function","name":"totalSupply","inputs":[],"outputs":[{"name":"","type":"uint256","internalType":"uint256"}],"stateMutability":"view"}],"bytecode":{"object":"0x60e060405234801561000f575f80fd5b50604051610a87380380610a8783398101604081905261002e91610064565b336080526001600160a01b0391821660a0521660c052610095565b80516001600160a01b038116811461005f575f80fd5b919050565b5f8060408385031215610075575f80fd5b61007e83610049565b915061008c60208401610049565b90509250929050565b60805160a05160c05161099f6100e85f395f818161019701528181610290015281816103a6015261064501525f8181610170015281816101f80152818161031301526105b201525f60f6015261099f5ff3fe608060405234801561000f575f80fd5b506004361061009b575f3560e01c80636a627842116100635780636a6278421461013957806370a082311461014c5780638322fff21461016b578063cff5b28e14610192578063d62ccb3f146101b9575f80fd5b8063022c0d9f1461009f5780630902f1ac146100b457806318160ddd146100da5780632dd31000146100f157806349001cc514610130575b5f80fd5b6100b26100ad366004610818565b6101c1565b005b5f5460015442604080519384526020840192909252908201526060015b60405180910390f35b6100e360025481565b6040519081526020016100d1565b6101187f000000000000000000000000000000000000000000000000000000000000000081565b6040516001600160a01b0390911681526020016100d1565b6100e360015481565b6100e36101473660046108a4565b61058f565b6100e361015a3660046108a4565b60036020525f908152604090205481565b6101187f000000000000000000000000000000000000000000000000000000000000000081565b6101187f000000000000000000000000000000000000000000000000000000000000000081565b6100e35f5481565b3332146101cc575f80fd5b84156102645760405163a9059cbb60e01b81526001600160a01b038481166004830152602482018790527f0000000000000000000000000000000000000000000000000000000000000000169063a9059cbb906044016020604051808303815f875af115801561023e573d5f803e3d5ffd5b505050506040513d601f19601f8201168201806040525081019061026291906108bd565b505b83156102fc5760405163a9059cbb60e01b81526001600160a01b038481166004830152602482018690527f0000000000000000000000000000000000000000000000000000000000000000169063a9059cbb906044016020604051808303815f875af11580156102d6573d5f803e3d5ffd5b505050506040513d601f19601f820116820180604052508101906102fa91906108bd565b505b6040516370a0823160e01b81523060048201525f907f00000000000000000000000000000000000000000000000000000000000000006001600160a01b0316906370a0823190602401602060405180830381865afa158015610360573d5f803e3d5ffd5b505050506040513d601f19601f8201168201806040525081019061038491906108dc565b6040516370a0823160e01b81523060048201529091505f906001600160a01b037f000000000000000000000000000000000000000000000000000000000000000016906370a0823190602401602060405180830381865afa1580156103eb573d5f803e3d5ffd5b505050506040513d601f19601f8201168201806040525081019061040f91906108dc565b90505f875f5461041f9190610907565b831161042b575f610442565b875f546104389190610907565b6104429084610907565b90505f876001546104539190610907565b831161045f575f610477565b8760015461046d9190610907565b6104779084610907565b90505f82118061048657505f81115b6104cc5760405162461bcd60e51b8152602060048201526012602482015271125b9cdd59999a58da595b9d08125b9c1d5d60721b60448201526064015b60405180910390fd5b5f6104d8836003610920565b6104e4866103e8610920565b6104ee9190610907565b90505f6104fc836003610920565b610508866103e8610920565b6105129190610907565b90506001545f546105239190610920565b61053090620f4240610920565b61053a8284610920565b101561057c5760405162461bcd60e51b815260206004820152601160248201527012c810dbdb9cdd185b9d0811985a5b1959607a1b60448201526064016104c3565b5050505f92909255600155505050505050565b5f33321461059b575f80fd5b6040516370a0823160e01b81523060048201525f907f00000000000000000000000000000000000000000000000000000000000000006001600160a01b0316906370a0823190602401602060405180830381865afa1580156105ff573d5f803e3d5ffd5b505050506040513d601f19601f8201168201806040525081019061062391906108dc565b6040516370a0823160e01b81523060048201529091505f906001600160a01b037f000000000000000000000000000000000000000000000000000000000000000016906370a0823190602401602060405180830381865afa15801561068a573d5f803e3d5ffd5b505050506040513d601f19601f820116820180604052508101906106ae91906108dc565b90506002545f036106e5576103e86106ce6106c98385610920565b61077d565b6106d89190610907565b6103e86002559250610724565b6107215f54600254846106f89190610920565b6107029190610937565b6001546002546107129085610920565b61071c9190610937565b6107eb565b92505b6001600160a01b0384165f90815260036020526040902054610747908490610956565b6001600160a01b0385165f9081526003602052604090205560025461076d908490610956565b6002555f91909155600155919050565b5f60038211156107dc5750805f610795600283610937565b6107a0906001610956565b90505b818110156107d6579050806002816107bb8186610937565b6107c59190610956565b6107cf9190610937565b90506107a3565b50919050565b81156107e6575060015b919050565b5f8183106107f957816107fb565b825b9392505050565b80356001600160a01b03811681146107e6575f80fd5b5f805f805f6080868803121561082c575f80fd5b853594506020860135935061084360408701610802565b9250606086013567ffffffffffffffff8082111561085f575f80fd5b818801915088601f830112610872575f80fd5b813581811115610880575f80fd5b896020828501011115610891575f80fd5b9699959850939650602001949392505050565b5f602082840312156108b4575f80fd5b6107fb82610802565b5f602082840312156108cd575f80fd5b815180151581146107fb575f80fd5b5f602082840312156108ec575f80fd5b5051919050565b634e487b7160e01b5f52601160045260245ffd5b8181038181111561091a5761091a6108f3565b92915050565b808202811582820484141761091a5761091a6108f3565b5f8261095157634e487b7160e01b5f52601260045260245ffd5b500490565b8082018082111561091a5761091a6108f356fea26469706673582212209494a0a1cb896093fb5c2dd917ae5dde6f13cb541b76b8d1c215d82c95c76e1764736f6c63430008140033","linkReferences":{}},"methodIdentifiers":{"ETH()":"8322fff2","FACTORY()":"2dd31000","FLUX()":"cff5b28e","balanceOf(address)":"70a08231","ethReserve()":"d62ccb3f","fluxReserve()":"49001cc5","getReserves()":"0902f1ac","mint(address)":"6a627842","swap(uint256,uint256,address,bytes)":"022c0d9f","totalSupply()":"18160ddd"},"id":23}