{"abi":[{"type":"constructor","inputs":[{"name":"_eth","type":"address","internalType":"address"},{"name":"_flux","type":"address","internalType":"address"},{"name":"_pool","type":"address","internalType":"address"}],"stateMutability":"nonpayable"},{"type":"receive","stateMutability":"payable"},{"type":"function","name":"ETH","inputs":[],"outputs":[{"name":"","type":"address","internalType":"address"}],"stateMutability":"view"},{"type":"function","name":"FLUX","inputs":[],"outputs":[{"name":"","type":"address","internalType":"address"}],"stateMutability":"view"},{"type":"function","name":"POOL","inputs":[],"outputs":[{"name":"","type":"address","internalType":"address"}],"stateMutability":"view"},{"type":"function","name":"addLiquidity","inputs":[{"name":"amountFlux","type":"uint256","internalType":"uint256"}],"outputs":[],"stateMutability":"payable"},{"type":"function","name":"swapEthForFlux","inputs":[{"name":"minFlux","type":"uint256","internalType":"uint256"}],"outputs":[],"stateMutability":"payable"}],"bytecode":{"object":"0x60e060405234801561000f575f80fd5b5060405161092838038061092883398101604081905261002e91610066565b6001600160a01b0392831660805290821660a0521660c0526100a6565b80516001600160a01b0381168114610061575f80fd5b919050565b5f805f60608486031215610078575f80fd5b6100818461004b565b925061008f6020850161004b565b915061009d6040850161004b565b90509250925092565b60805160a05160c0516108076101215f395f8181607d015281816101b801528181610301015281816103b0015281816104aa0152818161054b015261068701525f818160ff01528181610277015261033001525f818160cc01528181610136015281816101e60152818161042801526104d801526108075ff3fe60806040526004361061004c575f3560e01c806351c6590a146100575780637535d2461461006c5780638322fff2146100bb578063cff5b28e146100ee578063e27c52a914610121575f80fd5b3661005357005b5f80fd5b61006a6100653660046106ef565b610134565b005b348015610077575f80fd5b5061009f7f000000000000000000000000000000000000000000000000000000000000000081565b6040516001600160a01b03909116815260200160405180910390f35b3480156100c6575f80fd5b5061009f7f000000000000000000000000000000000000000000000000000000000000000081565b3480156100f9575f80fd5b5061009f7f000000000000000000000000000000000000000000000000000000000000000081565b61006a61012f3660046106ef565b610426565b7f00000000000000000000000000000000000000000000000000000000000000006001600160a01b031663d0e30db0346040518263ffffffff1660e01b81526004015f604051808303818588803b15801561018d575f80fd5b505af115801561019f573d5f803e3d5ffd5b505060405163a9059cbb60e01b81526001600160a01b037f0000000000000000000000000000000000000000000000000000000000000000811660048301523460248301527f000000000000000000000000000000000000000000000000000000000000000016935063a9059cbb925060440190506020604051808303815f875af1158015610230573d5f803e3d5ffd5b505050506040513d601f19601f820116820180604052508101906102549190610706565b506040516323b872dd60e01b8152336004820152306024820152604481018290527f00000000000000000000000000000000000000000000000000000000000000006001600160a01b0316906323b872dd906064016020604051808303815f875af11580156102c5573d5f803e3d5ffd5b505050506040513d601f19601f820116820180604052508101906102e99190610706565b5060405163a9059cbb60e01b81526001600160a01b037f000000000000000000000000000000000000000000000000000000000000000081166004830152602482018390527f0000000000000000000000000000000000000000000000000000000000000000169063a9059cbb906044016020604051808303815f875af1158015610376573d5f803e3d5ffd5b505050506040513d601f19601f8201168201806040525081019061039a9190610706565b506040516335313c2160e11b81523360048201527f00000000000000000000000000000000000000000000000000000000000000006001600160a01b031690636a627842906024016020604051808303815f875af11580156103fe573d5f803e3d5ffd5b505050506040513d601f19601f82011682018060405250810190610422919061072c565b5050565b7f00000000000000000000000000000000000000000000000000000000000000006001600160a01b031663d0e30db0346040518263ffffffff1660e01b81526004015f604051808303818588803b15801561047f575f80fd5b505af1158015610491573d5f803e3d5ffd5b505060405163a9059cbb60e01b81526001600160a01b037f0000000000000000000000000000000000000000000000000000000000000000811660048301523460248301527f000000000000000000000000000000000000000000000000000000000000000016935063a9059cbb925060440190506020604051808303815f875af1158015610522573d5f803e3d5ffd5b505050506040513d601f19601f820116820180604052508101906105469190610706565b505f807f00000000000000000000000000000000000000000000000000000000000000006001600160a01b0316630902f1ac6040518163ffffffff1660e01b8152600401606060405180830381865afa1580156105a5573d5f803e3d5ffd5b505050506040513d601f19601f820116820180604052508101906105c99190610743565b5090925090505f6105dc346103e5610782565b90505f6105e98383610782565b90505f826105f9866103e8610782565b610603919061079f565b90505f61061082846107b2565b9050868110156106575760405162461bcd60e51b815260206004820152600e60248201526d29b634b83830b3b29022b93937b960911b604482015260640160405180910390fd5b60405163022c0d9f60e01b81525f60048201819052602482018390523360448301526080606483015260848201527f00000000000000000000000000000000000000000000000000000000000000006001600160a01b03169063022c0d9f9060a4015f604051808303815f87803b1580156106d0575f80fd5b505af11580156106e2573d5f803e3d5ffd5b5050505050505050505050565b5f602082840312156106ff575f80fd5b5035919050565b5f60208284031215610716575f80fd5b81518015158114610725575f80fd5b9392505050565b5f6020828403121561073c575f80fd5b5051919050565b5f805f60608486031215610755575f80fd5b8351925060208401519150604084015190509250925092565b634e487b7160e01b5f52601160045260245ffd5b80820281158282048414176107995761079961076e565b92915050565b808201808211156107995761079961076e565b5f826107cc57634e487b7160e01b5f52601260045260245ffd5b50049056fea2646970667358221220b3aaf3df9f991dfe134b276b26b99610aafe565c6315896f3b0b01807fd73f4a64736f6c63430008140033","linkReferences":{}},"methodIdentifiers":{"ETH()":"8322fff2","FLUX()":"cff5b28e","POOL()":"7535d246","addLiquidity(uint256)":"51c6590a","swapEthForFlux(uint256)":"e27c52a9"},"id":25}